{
  "transactions": [
    {
      "hash": "0xe18e4f33f6fedd1cfd76af28151f360562eba32ef5acf543edd457e67442803c",
      "transactionType": "CALL",
      "contractName": null,
      "contractAddress": "0xb20f000000000000000000000000000000000000",
      "function": "createB20(uint8,bytes32,bytes,bytes[])",
      "arguments": [
        "0",
        "0x9f679f1eb1cb8abc950b9db45916c93aafbbae37fdbe8acd6e25d1eb625cebab",
        "0x0000000000000000000000000000000000000000000000000000000000000020000000000000000000000000000000000000000000000000000000000000000100000000000000000000000000000000000000000000000000000000000000a000000000000000000000000000000000000000000000000000000000000000e0000000000000000000000000b4957d40a0c938e25e77a3b711270e4b8fdf42cf000000000000000000000000000000000000000000000000000000000000001200000000000000000000000000000000000000000000000000000000000000084d7920546f6b656e00000000000000000000000000000000000000000000000000000000000000000000000000000000000000000000000000000000000000034d59540000000000000000000000000000000000000000000000000000000000",
        "[0x2f2ff15d154c00819833dac601ee5ddded6fda79d9d8b506b911b3dbd54cdb95fe6c3686000000000000000000000000b4957d40a0c938e25e77a3b711270e4b8fdf42cf, 0xe5a97f0700000000000000000000000000000000000000000000d3c21bcecceda1000000]"
      ],
      "transaction": {
        "from": "0xb4957d40a0c938e25e77a3b711270e4b8fdf42cf",
        "to": "0xb20f000000000000000000000000000000000000",
        "gas": "0x4e147",
        "value": "0x0",
        "input": "0x62975e6a00000000000000000000000000000000000000000000000000000000000000009f679f1eb1cb8abc950b9db45916c93aafbbae37fdbe8acd6e25d1eb625cebab000000000000000000000000000000000000000000000000000000000000008000000000000000000000000000000000000000000000000000000000000001e000000000000000000000000000000000000000000000000000000000000001400000000000000000000000000000000000000000000000000000000000000020000000000000000000000000000000000000000000000000000000000000000100000000000000000000000000000000000000000000000000000000000000a000000000000000000000000000000000000000000000000000000000000000e0000000000000000000000000b4957d40a0c938e25e77a3b711270e4b8fdf42cf000000000000000000000000000000000000000000000000000000000000001200000000000000000000000000000000000000000000000000000000000000084d7920546f6b656e00000000000000000000000000000000000000000000000000000000000000000000000000000000000000000000000000000000000000034d595400000000000000000000000000000000000000000000000000000000000000000000000000000000000000000000000000000000000000000000000002000000000000000000000000000000000000000000000000000000000000004000000000000000000000000000000000000000000000000000000000000000c000000000000000000000000000000000000000000000000000000000000000442f2ff15d154c00819833dac601ee5ddded6fda79d9d8b506b911b3dbd54cdb95fe6c3686000000000000000000000000b4957d40a0c938e25e77a3b711270e4b8fdf42cf000000000000000000000000000000000000000000000000000000000000000000000000000000000000000000000000000000000000000000000024e5a97f0700000000000000000000000000000000000000000000d3c21bcecceda100000000000000000000000000000000000000000000000000000000000000",
        "nonce": "0x0",
        "chainId": "0x14a34"
      },
      "additionalContracts": [],
      "isFixedGasLimit": false
    }
  ],
  "receipts": [
    {
      "status": "0x1",
      "cumulativeGasUsed": "0x67eca7",
      "logs": [
        {
          "address": "0xb20f000000000000000000000000000000000000",
          "topics": [
            "0xfd9bf2730513a1709722ff379a0844dfd8f997d600693c2bcc659e188bbdba0d",
            "0x000000000000000000000000b200000000000000000000a63ad223c0b3aa9fbd",
            "0x0000000000000000000000000000000000000000000000000000000000000000"
          ],
          "data": "0x000000000000000000000000000000000000000000000000000000000000008000000000000000000000000000000000000000000000000000000000000000c00000000000000000000000000000000000000000000000000000000000000012000000000000000000000000000000000000000000000000000000000000010000000000000000000000000000000000000000000000000000000000000000084d7920546f6b656e00000000000000000000000000000000000000000000000000000000000000000000000000000000000000000000000000000000000000034d595400000000000000000000000000000000000000000000000000000000000000000000000000000000000000000000000000000000000000000000000000",
          "blockHash": "0x0000000000000000000000000000000000000000000000000000000000000000",
          "blockNumber": "0x2940f72",
          "blockTimestamp": "0x6a3b7dc4",
          "transactionHash": "0xe18e4f33f6fedd1cfd76af28151f360562eba32ef5acf543edd457e67442803c",
          "transactionIndex": "0x1d",
          "logIndex": "0x81",
          "removed": false
        },
        {
          "address": "0xb200000000000000000000a63ad223c0b3aa9fbd",
          "topics": [
            "0x2f8788117e7eff1d82e926ec794901d17c78024a50270940304540a733656f0d",
            "0x0000000000000000000000000000000000000000000000000000000000000000",
            "0x000000000000000000000000b4957d40a0c938e25e77a3b711270e4b8fdf42cf",
            "0x000000000000000000000000b20f000000000000000000000000000000000000"
          ],
          "data": "0x",
          "blockHash": "0x0000000000000000000000000000000000000000000000000000000000000000",
          "blockNumber": "0x2940f72",
          "blockTimestamp": "0x6a3b7dc4",
          "transactionHash": "0xe18e4f33f6fedd1cfd76af28151f360562eba32ef5acf543edd457e67442803c",
          "transactionIndex": "0x1d",
          "logIndex": "0x82",
          "removed": false
        },
        {
          "address": "0xb200000000000000000000a63ad223c0b3aa9fbd",
          "topics": [
            "0x2f8788117e7eff1d82e926ec794901d17c78024a50270940304540a733656f0d",
            "0x154c00819833dac601ee5ddded6fda79d9d8b506b911b3dbd54cdb95fe6c3686",
            "0x000000000000000000000000b4957d40a0c938e25e77a3b711270e4b8fdf42cf",
            "0x000000000000000000000000b20f000000000000000000000000000000000000"
          ],
          "data": "0x",
          "blockHash": "0x0000000000000000000000000000000000000000000000000000000000000000",
          "blockNumber": "0x2940f72",
          "blockTimestamp": "0x6a3b7dc4",
          "transactionHash": "0xe18e4f33f6fedd1cfd76af28151f360562eba32ef5acf543edd457e67442803c",
          "transactionIndex": "0x1d",
          "logIndex": "0x83",
          "removed": false
        },
        {
          "address": "0xb200000000000000000000a63ad223c0b3aa9fbd",
          "topics": [
            "0x6d14f44808ce024f263432bc38d019a9951fbe674e9898b54844dbc8dc09c23a",
            "0x000000000000000000000000b20f000000000000000000000000000000000000"
          ],
          "data": "0x00000000000000000000000000000000ffffffffffffffffffffffffffffffff00000000000000000000000000000000000000000000d3c21bcecceda1000000",
          "blockHash": "0x0000000000000000000000000000000000000000000000000000000000000000",
          "blockNumber": "0x2940f72",
          "blockTimestamp": "0x6a3b7dc4",
          "transactionHash": "0xe18e4f33f6fedd1cfd76af28151f360562eba32ef5acf543edd457e67442803c",
          "transactionIndex": "0x1d",
          "logIndex": "0x84",
          "removed": false
        }
      ],
      "logsBloom": "0x00000004000000000000000001000000000010000000008000000000000080000000000000000008000000000000000000000000000000000080100000000000000000000000022000000000000000000000000000000000000000000000000000000000020000000000000000000800000000000000000000000000000000010000000000000000000000000000000000100000040000010000000000000002000000000000000000000000000000000000000000002000001000000000000000000004000000000000000000000200000008000000000100200080000020000000000000000000000000000100000000010000000000000000020004000000",
      "type": "0x2",
      "transactionHash": "0xe18e4f33f6fedd1cfd76af28151f360562eba32ef5acf543edd457e67442803c",
      "transactionIndex": "0x1d",
      "blockHash": "0x0000000000000000000000000000000000000000000000000000000000000000",
      "blockNumber": "0x2940f72",
      "gasUsed": "0x38875",
      "effectiveGasPrice": "0x5b8d80",
      "blobGasUsed": "0x1bfbe",
      "from": "0xb4957d40a0c938e25e77a3b711270e4b8fdf42cf",
      "to": "0xb20f000000000000000000000000000000000000",
      "contractAddress": null,
      "daFootprintGasScalar": "0x1be",
      "l1BaseFeeScalar": "0x44d",
      "l1BlobBaseFee": "0x38f9bdf",
      "l1BlobBaseFeeScalar": "0xa118b",
      "l1Fee": "0x388913469",
      "l1GasPrice": "0x41dc5373",
      "l1GasUsed": "0x101b"
    }
  ],
  "libraries": [],
  "pending": [],
  "returns": {
    "token": {
      "internal_type": "address",
      "value": "0xB200000000000000000000A63AD223c0b3aA9Fbd"
    }
  },
  "timestamp": 1782283717244,
  "chain": 84532,
  "commit": null
}