{
  "transactions": [
    {
      "hash": "0x46d634dd36fd1f28a8a63d2c163c79799e4c4f31370b74759e5074bacb3c30cc",
      "transactionType": "CALL",
      "contractName": null,
      "contractAddress": "0xb20f000000000000000000000000000000000000",
      "function": "createB20(uint8,bytes32,bytes,bytes[])",
      "arguments": [
        "0",
        "0xddc9ebe3c6c000c21f396ab86c3c076508d8e211ab7c93dea5067d2c17f32b32",
        "0x0000000000000000000000000000000000000000000000000000000000000020000000000000000000000000000000000000000000000000000000000000000100000000000000000000000000000000000000000000000000000000000000a000000000000000000000000000000000000000000000000000000000000000e0000000000000000000000000c703801d6a8d6a226b9cd81213b99485a09aa4e90000000000000000000000000000000000000000000000000000000000000012000000000000000000000000000000000000000000000000000000000000000942617365616e6f766100000000000000000000000000000000000000000000000000000000000000000000000000000000000000000000000000000000000005424e4f5641000000000000000000000000000000000000000000000000000000",
        "[0x2f2ff15d154c00819833dac601ee5ddded6fda79d9d8b506b911b3dbd54cdb95fe6c3686000000000000000000000000c703801d6a8d6a226b9cd81213b99485a09aa4e9, 0xe5a97f0700000000000000000000000000000000000000000000d3c21bcecceda1000000]"
      ],
      "transaction": {
        "from": "0xc703801d6a8d6a226b9cd81213b99485a09aa4e9",
        "to": "0xb20f000000000000000000000000000000000000",
        "gas": "0x4e168",
        "value": "0x0",
        "input": "0x62975e6a0000000000000000000000000000000000000000000000000000000000000000ddc9ebe3c6c000c21f396ab86c3c076508d8e211ab7c93dea5067d2c17f32b32000000000000000000000000000000000000000000000000000000000000008000000000000000000000000000000000000000000000000000000000000001e000000000000000000000000000000000000000000000000000000000000001400000000000000000000000000000000000000000000000000000000000000020000000000000000000000000000000000000000000000000000000000000000100000000000000000000000000000000000000000000000000000000000000a000000000000000000000000000000000000000000000000000000000000000e0000000000000000000000000c703801d6a8d6a226b9cd81213b99485a09aa4e90000000000000000000000000000000000000000000000000000000000000012000000000000000000000000000000000000000000000000000000000000000942617365616e6f766100000000000000000000000000000000000000000000000000000000000000000000000000000000000000000000000000000000000005424e4f56410000000000000000000000000000000000000000000000000000000000000000000000000000000000000000000000000000000000000000000002000000000000000000000000000000000000000000000000000000000000004000000000000000000000000000000000000000000000000000000000000000c000000000000000000000000000000000000000000000000000000000000000442f2ff15d154c00819833dac601ee5ddded6fda79d9d8b506b911b3dbd54cdb95fe6c3686000000000000000000000000c703801d6a8d6a226b9cd81213b99485a09aa4e9000000000000000000000000000000000000000000000000000000000000000000000000000000000000000000000000000000000000000000000024e5a97f0700000000000000000000000000000000000000000000d3c21bcecceda100000000000000000000000000000000000000000000000000000000000000",
        "nonce": "0x0",
        "chainId": "0x14a34"
      },
      "additionalContracts": [],
      "isFixedGasLimit": false
    }
  ],
  "receipts": [
    {
      "status": "0x1",
      "cumulativeGasUsed": "0x7b8948",
      "logs": [
        {
          "address": "0xb20f000000000000000000000000000000000000",
          "topics": [
            "0xfd9bf2730513a1709722ff379a0844dfd8f997d600693c2bcc659e188bbdba0d",
            "0x000000000000000000000000b200000000000000000000bb7b06fa1bafde03f8",
            "0x0000000000000000000000000000000000000000000000000000000000000000"
          ],
          "data": "0x000000000000000000000000000000000000000000000000000000000000008000000000000000000000000000000000000000000000000000000000000000c000000000000000000000000000000000000000000000000000000000000000120000000000000000000000000000000000000000000000000000000000000100000000000000000000000000000000000000000000000000000000000000000942617365616e6f766100000000000000000000000000000000000000000000000000000000000000000000000000000000000000000000000000000000000005424e4f56410000000000000000000000000000000000000000000000000000000000000000000000000000000000000000000000000000000000000000000000",
          "blockHash": "0x0000000000000000000000000000000000000000000000000000000000000000",
          "blockNumber": "0x298b209",
          "blockTimestamp": "0x6a44c2f2",
          "transactionHash": "0x46d634dd36fd1f28a8a63d2c163c79799e4c4f31370b74759e5074bacb3c30cc",
          "transactionIndex": "0x13",
          "logIndex": "0xe7",
          "removed": false
        },
        {
          "address": "0xb200000000000000000000bb7b06fa1bafde03f8",
          "topics": [
            "0x2f8788117e7eff1d82e926ec794901d17c78024a50270940304540a733656f0d",
            "0x0000000000000000000000000000000000000000000000000000000000000000",
            "0x000000000000000000000000c703801d6a8d6a226b9cd81213b99485a09aa4e9",
            "0x000000000000000000000000b20f000000000000000000000000000000000000"
          ],
          "data": "0x",
          "blockHash": "0x0000000000000000000000000000000000000000000000000000000000000000",
          "blockNumber": "0x298b209",
          "blockTimestamp": "0x6a44c2f2",
          "transactionHash": "0x46d634dd36fd1f28a8a63d2c163c79799e4c4f31370b74759e5074bacb3c30cc",
          "transactionIndex": "0x13",
          "logIndex": "0xe8",
          "removed": false
        },
        {
          "address": "0xb200000000000000000000bb7b06fa1bafde03f8",
          "topics": [
            "0x2f8788117e7eff1d82e926ec794901d17c78024a50270940304540a733656f0d",
            "0x154c00819833dac601ee5ddded6fda79d9d8b506b911b3dbd54cdb95fe6c3686",
            "0x000000000000000000000000c703801d6a8d6a226b9cd81213b99485a09aa4e9",
            "0x000000000000000000000000b20f000000000000000000000000000000000000"
          ],
          "data": "0x",
          "blockHash": "0x0000000000000000000000000000000000000000000000000000000000000000",
          "blockNumber": "0x298b209",
          "blockTimestamp": "0x6a44c2f2",
          "transactionHash": "0x46d634dd36fd1f28a8a63d2c163c79799e4c4f31370b74759e5074bacb3c30cc",
          "transactionIndex": "0x13",
          "logIndex": "0xe9",
          "removed": false
        },
        {
          "address": "0xb200000000000000000000bb7b06fa1bafde03f8",
          "topics": [
            "0x6d14f44808ce024f263432bc38d019a9951fbe674e9898b54844dbc8dc09c23a",
            "0x000000000000000000000000b20f000000000000000000000000000000000000"
          ],
          "data": "0x00000000000000000000000000000000ffffffffffffffffffffffffffffffff00000000000000000000000000000000000000000000d3c21bcecceda1000000",
          "blockHash": "0x0000000000000000000000000000000000000000000000000000000000000000",
          "blockNumber": "0x298b209",
          "blockTimestamp": "0x6a44c2f2",
          "transactionHash": "0x46d634dd36fd1f28a8a63d2c163c79799e4c4f31370b74759e5074bacb3c30cc",
          "transactionIndex": "0x13",
          "logIndex": "0xea",
          "removed": false
        }
      ],
      "logsBloom": "0x00000004000000000000000000000000000010000000008000000000000000000000000000000008000000000000000000000000000000000080080000000000000000000000022000000000000000000000000000000000000040000000000000000000020000000000008000000800000000000000000008000000000000010000020000000000000000000000000000100000000000000400000000000000000000000000000000000000002000000000000000002020001000000000000000000004000000000000000000000000000000000000000100200080000020000000000000000000000000000000000000010000000000000400020004000000",
      "type": "0x2",
      "transactionHash": "0x46d634dd36fd1f28a8a63d2c163c79799e4c4f31370b74759e5074bacb3c30cc",
      "transactionIndex": "0x13",
      "blockHash": "0x0000000000000000000000000000000000000000000000000000000000000000",
      "blockNumber": "0x298b209",
      "gasUsed": "0x3888d",
      "effectiveGasPrice": "0x5b8d80",
      "blobGasUsed": "0x1c4f8",
      "from": "0xc703801d6a8d6a226b9cd81213b99485a09aa4e9",
      "to": "0xb20f000000000000000000000000000000000000",
      "contractAddress": null,
      "daFootprintGasScalar": "0x1be",
      "l1BaseFeeScalar": "0x44d",
      "l1BlobBaseFee": "0x25ee8336",
      "l1BlobBaseFeeScalar": "0xa118b",
      "l1Fee": "0x2ff18ea8c90",
      "l1GasPrice": "0x285984d04",
      "l1GasUsed": "0x1043"
    }
  ],
  "libraries": [],
  "pending": [],
  "returns": {
    "token": {
      "internal_type": "address",
      "value": "0xb200000000000000000000bb7b06Fa1bAFde03f8"
    }
  },
  "timestamp": 1782891250864,
  "chain": 84532,
  "commit": null
}